03300000        2043212943000190368970130010313     008523860           TRANSAMERICA DE HOTEIS SAO PAUBANCO SANTANDER (BRASIL) S/A            224052022      002275040                                                                          
03302481T01  040 2043212943000190008523860           368970130010313     TRANSAMERICA DE HOTEIS SAO PAU                                                                                0000227524052022                                         
0330248300001T 06368970130010313        00003108202352MAN180522   1  25052022000000000000100033329300000000005               002003445349000125PASSAPORTE BRASIL VIAGENS EVENTOS SERVIC01300103130000000000001180300000000                      
0330248300002U 060000000000000000000000000000000000000000000000000000000000000000000000001000000000000001000000000000000000000000000000002405202225052022000000000000000000000000000                              000                           
03302485         0000020000340000000015605591500000000000000000000000000000000000000000000000000000000000000000000000001042                                                                                                                     
03302489         000001000006                                                                                                                                                                                                                   
