110700000554                  213432810000169020210525202105250007622                                                                                                                                                                                                                                                                                                                                  00000001
22021052500000009317320210525000000NT        2932507000000000427955000000000000000000000000000000000000000000000000000000000000000000000000000000000000000000000000000021398M                    000000000000000                                                                                                                                                                                       00000002
320210525000000093173210760260000119CVC BRASIL OPERADORA E AGENCIA DE VIAGEN                                                            RUADAS FIGUEIRAS                                     501       8º ANDAR            JARDIM                        SANTO ANDRE                                       SP09080370                                                                                  00000003
420210525000000093173625 - MARIA HELENA CRUZ                                                                                                                                                                                                                                                                                                                                                           00000004
520210525000000093173    9.01                0000000003721350000000000000000500UNS                 00000100DIARIA                                                                                                                                                                                                                                                                                      00000005
520210525000000093173    9.01                0000000000372150000000000000000500UNS                 00000100TAXA DE SERVIÇO                                                                                                                                                                                                                                                                             00000006
520210525000000093173    9.01                0000000000186050000000000000000500UNS                 00000100TAXA ISS                                                                                                                                                                                                                                                                                    00000007
22021052500000009317420210525000000NT        2932507000000000427955000000000000000000000000000000000000000000000000000000000000000000000000000000000000000000000000000021398M                    000000000000000                                                                                                                                                                                       00000008
320210525000000093174210760260000119CVC BRASIL OPERADORA E AGENCIA DE VIAGEN                                                            RUADAS FIGUEIRAS                                     501       8º ANDAR            JARDIM                        SANTO ANDRE                                       SP09080370                                                                                  00000009
420210525000000093174623 - RENATA CRISTINA DE AQUINO                                                                                                                                                                                                                                                                                                                                                   00000010
520210525000000093174    9.01                0000000003721350000000000000000500UNS                 00000100DIARIA                                                                                                                                                                                                                                                                                      00000011
520210525000000093174    9.01                0000000000372150000000000000000500UNS                 00000100TAXA DE SERVIÇO                                                                                                                                                                                                                                                                             00000012
520210525000000093174    9.01                0000000000186050000000000000000500UNS                 00000100TAXA ISS                                                                                                                                                                                                                                                                                    00000013
22021052500000009317520210525000000NT        2932507000000000432600000000000000000000000000000000000000000000000000000000000000000000000000000000000000000000000000000021630M                    000000000000000                                                                                                                                                                                       00000014
320210525000000093175210760260000119CVC BRASIL OPERADORA E AGENCIA DE VIAGEN                                                            RUADAS FIGUEIRAS                                     501       8º ANDAR            JARDIM                        SANTO ANDRE                                       SP09080370                                                                                  00000015
420210525000000093175505 - RICARDO GARCIA                                                                                                                                                                                                                                                                                                                                                              00000016
520210525000000093175    9.01                0000000004120020000000000000000500UNS                 00000100DIARIA                                                                                                                                                                                                                                                                                      00000017
520210525000000093175    9.01                0000000000205980000000000000000500UNS                 00000100TAXA ISS                                                                                                                                                                                                                                                                                    00000018
22021052500000009317620210525000000NT        2932507000000000432600000000000000000000000000000000000000000000000000000000000000000000000000000000000000000000000000000021630M                    000000000000000                                                                                                                                                                                       00000019
320210525000000093176210760260000119CVC BRASIL OPERADORA E AGENCIA DE VIAGEN                                                            RUADAS FIGUEIRAS                                     501       8º ANDAR            JARDIM                        SANTO ANDRE                                       SP09080370                                                                                  00000020
420210525000000093176503 - FLAVIO SOARES MACHADO                                                                                                                                                                                                                                                                                                                                                       00000021
520210525000000093176    9.01                0000000004120020000000000000000500UNS                 00000100DIARIA                                                                                                                                                                                                                                                                                      00000022
520210525000000093176    9.01                0000000000205980000000000000000500UNS                 00000100TAXA ISS                                                                                                                                                                                                                                                                                    00000023
22021052500000009317720210525000000NT        2932507000000000432594000000000000000000000000000000000000000000000000000000000000000000000000000000000000000000000000000021630M                    000000000000000                                                                                                                                                                                       00000024
320210525000000093177210760260000119CVC BRASIL OPERADORA E AGENCIA DE VIAGEN                                                            RUADAS FIGUEIRAS                                     501       8º ANDAR            JARDIM                        SANTO ANDRE                                       SP09080370                                                                                  00000025
420210525000000093177500 - RODRIGO PEREIRA                                                                                                                                                                                                                                                                                                                                                             00000026
520210525000000093177    9.01                0000000004119960000000000000000500UNS                 00000100DIARIA                                                                                                                                                                                                                                                                                      00000027
520210525000000093177    9.01                0000000000205980000000000000000500UNS                 00000100TAXA ISS                                                                                                                                                                                                                                                                                    00000028
22021052500000009317820210525000000NT        2932507000000000432600000000000000000000000000000000000000000000000000000000000000000000000000000000000000000000000000000021630M                    000000000000000                                                                                                                                                                                       00000029
320210525000000093178210760260000119CVC BRASIL OPERADORA E AGENCIA DE VIAGEN                                                            RUADAS FIGUEIRAS                                     501       8º ANDAR            JARDIM                        SANTO ANDRE                                       SP09080370                                                                                  00000030
420210525000000093178423 - OLAVIO ASENSAO JUNIOR                                                                                                                                                                                                                                                                                                                                                       00000031
520210525000000093178    9.01                0000000004120020000000000000000500UNS                 00000100DIARIA                                                                                                                                                                                                                                                                                      00000032
520210525000000093178    9.01                0000000000205980000000000000000500UNS                 00000100TAXA ISS                                                                                                                                                                                                                                                                                    00000033
22021052500000009317920210525000000NT        2932507000000000606326000000000000000000000000000000000000000000000000000000000000000000000000000000000000000000000000000030316M                    000000000000000                                                                                                                                                                                       00000034
320210525000000093179106976493697   RENATA SILVEIRA                                                                                     AV NIEMEYER                                          550       CASA 7              VIDIGAL                       RIO DE JANEIRO                                    RJ22450220gohuggo@icloud.com                                                                00000035
420210525000000093179                                                                                                                                                                                                                                                                                                                                                                                  00000036
520210525000000093179    9.01                0000000005272400000000000000000500UNS                 00000100DIARIA                                                                                                                                                                                                                                                                                      00000037
520210525000000093179    9.01                0000000000527260000000000000000500UNS                 00000100TAXA DE SERVIÇO                                                                                                                                                                                                                                                                             00000038
520210525000000093179    9.01                0000000000263600000000000000000500UNS                 00000100TAXA ISS                                                                                                                                                                                                                                                                                    00000039
22021052500000009318020210525000000NT        2932507000000000371732000000000000000000000000000000000000000000000000000000000000000000000000000000000000000000000000000018587M                    000000000000000                                                                                                                                                                                       00000040
320210525000000093180219916590000125TREND VIAGENS OPERADORA DE TURISMO S.A.                                                             RUADAS ESMERALDAS                                    395       1º ANDAR            JARDIM,                       SANTO ANDRE                                       SP09090770                                                                                  00000041
420210525000000093180385 - FABIO SCHALCH ACTE                                                                                                                                                                                                                                                                                                                                                          00000042
520210525000000093180    9.01                0000000003232450000000000000000500UNS                 00000100DIARIA                                                                                                                                                                                                                                                                                      00000043
520210525000000093180    9.01                0000000000323270000000000000000500UNS                 00000100TAXA DE SERVIÇO                                                                                                                                                                                                                                                                             00000044
520210525000000093180    9.01                0000000000161600000000000000000500UNS                 00000100TAXA ISS                                                                                                                                                                                                                                                                                    00000045
22021052500000009318120210525000000NT        2932507000000000448264000000000000000000000000000000000000000000000000000000000000000000000000000000000000000000000000000022413M                    000000000000000                                                                                                                                                                                       00000046
320210525000000093181106023933610   MARCELA SILVEIRA                                                                                    RUASERGIPE                                           802                           FUNCIONARIOS                  BELO HORIZONTE                                    MG30130171doraaraujosilveira@gmail.com                                                      00000047
420210525000000093181                                                                                                                                                                                                                                                                                                                                                                                  00000048
520210525000000093181    9.01                0000000003897950000000000000000500UNS                 00000100DIARIA                                                                                                                                                                                                                                                                                      00000049
520210525000000093181    9.01                0000000000389790000000000000000500UNS                 00000100TAXA DE SERVIÇO                                                                                                                                                                                                                                                                             00000050
520210525000000093181    9.01                0000000000194900000000000000000500UNS                 00000100TAXA ISS                                                                                                                                                                                                                                                                                    00000051
22021052500000009318220210525000000NT        2932507000000000678960000000000000000000000000000000000000000000000000000000000000000000000000000000000000000000000000000033948M                    000000000000000                                                                                                                                                                                       00000052
320210525000000093182125330888972   ANA PAULA MATOSINHOS                                                                                                                                                                                                 BELO HORIZONTE                                    MG45690000a_matosinhos@hotmail.com                                                          00000053
420210525000000093182                                                                                                                                                                                                                                                                                                                                                                                  00000054
520210525000000093182    9.01                0000000005904000000000000000000500UNS                 00000100DIARIA                                                                                                                                                                                                                                                                                      00000055
520210525000000093182    9.01                0000000000590400000000000000000500UNS                 00000100TAXA DE SERVIÇO                                                                                                                                                                                                                                                                             00000056
520210525000000093182    9.01                0000000000295200000000000000000500UNS                 00000100TAXA ISS                                                                                                                                                                                                                                                                                    00000057
22021052500000009318320210525000000NT        2932507000000000380645000000000000000000000000000000000000000000000000000000000000000000000000000000000000000000000000000019032M                    000000000000000                                                                                                                                                                                       00000058
320210525000000093183210760260000119CVC BRASIL OPERADORA E AGENCIA DE VIAGEN                                                            RUADAS FIGUEIRAS                                     501       8º ANDAR            JARDIM                        SANTO ANDRE                                       SP09080370                                                                                  00000059
420210525000000093183245 - RODRIGO AMORIN                                                                                                                                                                                                                                                                                                                                                              00000060
520210525000000093183    9.01                0000000003309950000000000000000500UNS                 00000100DIARIA                                                                                                                                                                                                                                                                                      00000061
520210525000000093183    9.01                0000000000331000000000000000000500UNS                 00000100TAXA DE SERVIÇO                                                                                                                                                                                                                                                                             00000062
520210525000000093183    9.01                0000000000165500000000000000000500UNS                 00000100TAXA ISS                                                                                                                                                                                                                                                                                    00000063
22021052500000009318420210525000000NT        2932507000000000118818000000000000000000000000000000000000000000000000000000000000000000000000000000000000000000000000000005941M                    000000000000000                                                                                                                                                                                       00000064
320210525000000093184169844801168   ROBERTA PEIXOTO                                                                                                                                                                                                      SAO PAULO                                         SP45690000                                                                                  00000065
420210525000000093184                                                                                                                                                                                                                                                                                                                                                                                  00000066
520210525000000093184    9.01                0000000001033200000000000000000500UNS                 00000100DIARIA                                                                                                                                                                                                                                                                                      00000067
520210525000000093184    9.01                0000000000103320000000000000000500UNS                 00000100TAXA DE SERVIÇO                                                                                                                                                                                                                                                                             00000068
520210525000000093184    9.01                0000000000051660000000000000000500UNS                 00000100TAXA ISS                                                                                                                                                                                                                                                                                    00000069
22021052500000009318520210525000000NT        2932507000000000059800000000000000000000000000000000000000000000000000000000000000000000000000000000000000000000000000000002990M                    000000000000000                                                                                                                                                                                       00000070
320210525000000093185130093231822   RODRIGO NAMIKI                                                                                      AV RODRIGO FERNANDO GRILLO                           207       91                  JD MANACAS                    ARARAQUARA                                        SP14801534rodrigo.namiki@uol.com.br                                                         00000071
420210525000000093185                                                                                                                                                                                                                                                                                                                                                                                  00000072
520210525000000093185    9.01                0000000000520000000000000000000500UNS                 00000100DIARIA                                                                                                                                                                                                                                                                                      00000073
520210525000000093185    9.01                0000000000052000000000000000000500UNS                 00000100TAXA DE SERVIÇO                                                                                                                                                                                                                                                                             00000074
520210525000000093185    9.01                0000000000026000000000000000000500UNS                 00000100TAXA ISS                                                                                                                                                                                                                                                                                    00000075
22021052500000009318620210525000000NT        2932507000000000534577000000000000000000000000000000000000000000000000000000000000000000000000000000000000000000000000000026729M                    000000000000000                                                                                                                                                                                       00000076
320210525000000093186204545690000115FRT OPERADORA DE TURISMO LTDA -  EPP                                                                AV BRASIL                                            1345      4º ANDAR            CENTRO                        FOZ DO IGUACU                                     PR85851000                                                            ISENTO                00000077
420210525000000093186512 - ERICO SILVA JR                                                                                                                                                                                                                                                                                                                                                              00000078
520210525000000093186    9.01                0000000004648500000000000000000500UNS                 00000100DIARIA                                                                                                                                                                                                                                                                                      00000079
520210525000000093186    9.01                0000000000464820000000000000000500UNS                 00000100TAXA DE SERVIÇO                                                                                                                                                                                                                                                                             00000080
520210525000000093186    9.01                0000000000232450000000000000000500UNS                 00000100TAXA ISS                                                                                                                                                                                                                                                                                    00000081
22021052500000009318720210525000000NT        2932507000000000458200000000000000000000000000000000000000000000000000000000000000000000000000000000000000000000000000000022910M                    000000000000000                                                                                                                                                                                       00000082
320210525000000093187106923981980   DIEGO AKIRE MARTINS                                                                                 RUARUA AUGUSTO KLIMMEK                               80                            CENTRO                        SAO BENTO DO SUL                                  SC89280349diegoakire@hotmail.com                                                            00000083
420210525000000093187                                                                                                                                                                                                                                                                                                                                                                                  00000084
520210525000000093187    9.01                0000000003640000000000000000000500UNS                 00000100DIARIA                                                                                                                                                                                                                                                                                      00000085
520210525000000093187    9.01                0000000000364000000000000000000500UNS                 00000100TAXA DE SERVIÇO                                                                                                                                                                                                                                                                             00000086
520210525000000093187    9.01                0000000000182000000000000000000500UNS                 00000100TAXA ISS                                                                                                                                                                                                                                                                                    00000087
520210525000000093187    9.01                0000000000198000000000000000000500UNS                 00000100TRANSFER - ILHÉUS - IN                                                                                                                                                                                                                                                                      00000088
520210525000000093187    9.01                0000000000198000000000000000000500UNS                 00000100TRANSFER - ILHÉUS - OUT                                                                                                                                                                                                                                                                     00000089
22021052500000009318820210525000000NT        2932507000000000458200000000000000000000000000000000000000000000000000000000000000000000000000000000000000000000000000000022910M                    000000000000000                                                                                                                                                                                       00000090
320210525000000093188101167001060   GERALDINE PADILHA PHILIPSEN                                                                         RUAAUGUSTO KLIMMEK                                   80                            CENTRO                        SAO BENTO DO SUL                                  SC89280349dini_p@hotmail.com                                                                00000091
420210525000000093188                                                                                                                                                                                                                                                                                                                                                                                  00000092
520210525000000093188    9.01                0000000003640000000000000000000500UNS                 00000100DIARIA                                                                                                                                                                                                                                                                                      00000093
520210525000000093188    9.01                0000000000364000000000000000000500UNS                 00000100TAXA DE SERVIÇO                                                                                                                                                                                                                                                                             00000094
520210525000000093188    9.01                0000000000182000000000000000000500UNS                 00000100TAXA ISS                                                                                                                                                                                                                                                                                    00000095
520210525000000093188    9.01                0000000000198000000000000000000500UNS                 00000100TRANSFER - ILHÉUS - IN                                                                                                                                                                                                                                                                      00000096
520210525000000093188    9.01                0000000000198000000000000000000500UNS                 00000100TRANSFER - ILHÉUS - OUT                                                                                                                                                                                                                                                                     00000097
22021052500000009318920210525000000NT        2932507000000000507900000000000000000000000000000000000000000000000000000000000000000000000000000000000000000000000000000025395M                    000000000000000                                                                                                                                                                                       00000098
320210525000000093189126870268835   FILIPE FORNASA                                                                                      RUASIMEÃO ESMERALDINO DE MENEZES                     138       APTO 603            DEHON                         TUBARAO                                           SC88704090filipefornasa@cvc.com.br                                                          00000099
420210525000000093189                                                                                                                                                                                                                                                                                                                                                                                  00000100
520210525000000093189    9.01                0000000003900000000000000000000500UNS                 00000100DIARIA                                                                                                                                                                                                                                                                                      00000101
520210525000000093189    9.01                0000000000390000000000000000000500UNS                 00000100TAXA DE SERVIÇO                                                                                                                                                                                                                                                                             00000102
520210525000000093189    9.01                0000000000195000000000000000000500UNS                 00000100TAXA ISS                                                                                                                                                                                                                                                                                    00000103
520210525000000093189    9.01                0000000000297000000000000000000500UNS                 00000100TRANSFER - ILHÉUS - IN                                                                                                                                                                                                                                                                      00000104
520210525000000093189    9.01                0000000000297000000000000000000500UNS                 00000100TRANSFER - ILHÉUS - OUT                                                                                                                                                                                                                                                                     00000105
22021052500000009319020210525000000NT        2932507000000000339000000000000000000000000000000000000000000000000000000000000000000000000000000000000000000000000000000016950M                    000000000000000                                                                                                                                                                                       00000106
320210525000000093190210760260000119CVC BRASIL OPERADORA E AGENCIA DE VIAGEN                                                            RUADAS FIGUEIRAS                                     501       8º ANDAR            JARDIM                        SANTO ANDRE                                       SP09080370                                                                                  00000107
420210525000000093190617 - OSMAR JOSE PREMAN                                                                                                                                                                                                                                                                                                                                                           00000108
520210525000000093190    9.01                0000000003228540000000000000000500UNS                 00000100DIARIA                                                                                                                                                                                                                                                                                      00000109
520210525000000093190    9.01                0000000000161460000000000000000500UNS                 00000100TAXA ISS                                                                                                                                                                                                                                                                                    00000110
22021052500000009319120210525000000NT        2932507000000000339000000000000000000000000000000000000000000000000000000000000000000000000000000000000000000000000000000016950M                    000000000000000                                                                                                                                                                                       00000111
320210525000000093191210760260000119CVC BRASIL OPERADORA E AGENCIA DE VIAGEN                                                            RUADAS FIGUEIRAS                                     501       8º ANDAR            JARDIM                        SANTO ANDRE                                       SP09080370                                                                                  00000112
420210525000000093191615 - JOSE MARCOS FERNANDES DE MELLO                                                                                                                                                                                                                                                                                                                                              00000113
520210525000000093191    9.01                0000000003228540000000000000000500UNS                 00000100DIARIA                                                                                                                                                                                                                                                                                      00000114
520210525000000093191    9.01                0000000000161460000000000000000500UNS                 00000100TAXA ISS                                                                                                                                                                                                                                                                                    00000115
22021052500000009319220210525000000NT        2932507000000000339000000000000000000000000000000000000000000000000000000000000000000000000000000000000000000000000000000016950M                    000000000000000                                                                                                                                                                                       00000116
320210525000000093192210760260000119CVC BRASIL OPERADORA E AGENCIA DE VIAGEN                                                            RUADAS FIGUEIRAS                                     501       8º ANDAR            JARDIM                        SANTO ANDRE                                       SP09080370                                                                                  00000117
420210525000000093192611 - MARCIO ANTONIO ALTEREGO                                                                                                                                                                                                                                                                                                                                                     00000118
520210525000000093192    9.01                0000000003228540000000000000000500UNS                 00000100DIARIA                                                                                                                                                                                                                                                                                      00000119
520210525000000093192    9.01                0000000000161460000000000000000500UNS                 00000100TAXA ISS                                                                                                                                                                                                                                                                                    00000120
22021052500000009319320210525000000NT        2932507000000000339000000000000000000000000000000000000000000000000000000000000000000000000000000000000000000000000000000016950M                    000000000000000                                                                                                                                                                                       00000121
320210525000000093193210760260000119CVC BRASIL OPERADORA E AGENCIA DE VIAGEN                                                            RUADAS FIGUEIRAS                                     501       8º ANDAR            JARDIM                        SANTO ANDRE                                       SP09080370                                                                                  00000122
420210525000000093193609 - ROBERVAL ZANARDI AMARO DA SILVA                                                                                                                                                                                                                                                                                                                                             00000123
520210525000000093193    9.01                0000000003228540000000000000000500UNS                 00000100DIARIA                                                                                                                                                                                                                                                                                      00000124
520210525000000093193    9.01                0000000000161460000000000000000500UNS                 00000100TAXA ISS                                                                                                                                                                                                                                                                                    00000125
22021052500000009319420210525000000NT        2932507000000000339000000000000000000000000000000000000000000000000000000000000000000000000000000000000000000000000000000016950M                    000000000000000                                                                                                                                                                                       00000126
320210525000000093194210760260000119CVC BRASIL OPERADORA E AGENCIA DE VIAGEN                                                            RUADAS FIGUEIRAS                                     501       8º ANDAR            JARDIM                        SANTO ANDRE                                       SP09080370                                                                                  00000127
420210525000000093194535 - PAULO TAVARES PINHEIRO                                                                                                                                                                                                                                                                                                                                                      00000128
520210525000000093194    9.01                0000000003228540000000000000000500UNS                 00000100DIARIA                                                                                                                                                                                                                                                                                      00000129
520210525000000093194    9.01                0000000000161460000000000000000500UNS                 00000100TAXA ISS                                                                                                                                                                                                                                                                                    00000130
22021052500000009319520210525000000NT        2932507000000000339000000000000000000000000000000000000000000000000000000000000000000000000000000000000000000000000000000016950M                    000000000000000                                                                                                                                                                                       00000131
320210525000000093195210760260000119CVC BRASIL OPERADORA E AGENCIA DE VIAGEN                                                            RUADAS FIGUEIRAS                                     501       8º ANDAR            JARDIM                        SANTO ANDRE                                       SP09080370                                                                                  00000132
420210525000000093195530 - ALEXANDRE PENTEADO                                                                                                                                                                                                                                                                                                                                                          00000133
520210525000000093195    9.01                0000000003228600000000000000000500UNS                 00000100DIARIA                                                                                                                                                                                                                                                                                      00000134
520210525000000093195    9.01                0000000000161400000000000000000500UNS                 00000100TAXA ISS                                                                                                                                                                                                                                                                                    00000135
22021052500000009319620210525000000NT        2932507000000000339000000000000000000000000000000000000000000000000000000000000000000000000000000000000000000000000000000016950M                    000000000000000                                                                                                                                                                                       00000136
320210525000000093196210760260000119CVC BRASIL OPERADORA E AGENCIA DE VIAGEN                                                            RUADAS FIGUEIRAS                                     501       8º ANDAR            JARDIM                        SANTO ANDRE                                       SP09080370                                                                                  00000137
420210525000000093196527 - AGUINALDO FULCO                                                                                                                                                                                                                                                                                                                                                             00000138
520210525000000093196    9.01                0000000003228600000000000000000500UNS                 00000100DIARIA                                                                                                                                                                                                                                                                                      00000139
520210525000000093196    9.01                0000000000161400000000000000000500UNS                 00000100TAXA ISS                                                                                                                                                                                                                                                                                    00000140
22021052500000009319720210525000000NT        2932507000000000390000000000000000000000000000000000000000000000000000000000000000000000000000000000000000000000000000000019500M                    000000000000000                                                                                                                                                                                       00000141
320210525000000093197210760260000119CVC BRASIL OPERADORA E AGENCIA DE VIAGEN                                                            RUADAS FIGUEIRAS                                     501       8º ANDAR            JARDIM                        SANTO ANDRE                                       SP09080370                                                                                  00000142
420210525000000093197147 - LEIDA MACERA URBANINHO                                                                                                                                                                                                                                                                                                                                                      00000143
520210525000000093197    9.01                0000000003714300000000000000000500UNS                 00000100DIARIA                                                                                                                                                                                                                                                                                      00000144
520210525000000093197    9.01                0000000000185700000000000000000500UNS                 00000100TAXA ISS                                                                                                                                                                                                                                                                                    00000145
22021052500000009319820210525000000NT        2932507000000000390000000000000000000000000000000000000000000000000000000000000000000000000000000000000000000000000000000019500M                    000000000000000                                                                                                                                                                                       00000146
320210525000000093198210760260000119CVC BRASIL OPERADORA E AGENCIA DE VIAGEN                                                            RUADAS FIGUEIRAS                                     501       8º ANDAR            JARDIM                        SANTO ANDRE                                       SP09080370                                                                                  00000147
420210525000000093198145 - PLINIO JOSE DA SILVA NETO                                                                                                                                                                                                                                                                                                                                                   00000148
520210525000000093198    9.01                0000000003714300000000000000000500UNS                 00000100DIARIA                                                                                                                                                                                                                                                                                      00000149
520210525000000093198    9.01                0000000000185700000000000000000500UNS                 00000100TAXA ISS                                                                                                                                                                                                                                                                                    00000150
22021052500000009319920210525000000NT        2932507000000000591889000000000000000000000000000000000000000000000000000000000000000000000000000000000000000000000000000029594M                    000000000000000                                                                                                                                                                                       00000151
320210525000000093199210760260000119CVC BRASIL OPERADORA E AGENCIA DE VIAGEN                                                            RUADAS FIGUEIRAS                                     501       8º ANDAR            JARDIM                        SANTO ANDRE                                       SP09080370                                                                                  00000152
420210525000000093199142 - TSUTOMU NAMIKI                                                                                                                                                                                                                                                                                                                                                              00000153
520210525000000093199    9.01                0000000005146860000000000000000500UNS                 00000100DIARIA                                                                                                                                                                                                                                                                                      00000154
520210525000000093199    9.01                0000000000514690000000000000000500UNS                 00000100TAXA DE SERVIÇO                                                                                                                                                                                                                                                                             00000155
520210525000000093199    9.01                0000000000257340000000000000000500UNS                 00000100TAXA ISS                                                                                                                                                                                                                                                                                    00000156
22021052500000009320020210525000000NT        2932507000000000390000000000000000000000000000000000000000000000000000000000000000000000000000000000000000000000000000000019500M                    000000000000000                                                                                                                                                                                       00000157
320210525000000093200210760260000119CVC BRASIL OPERADORA E AGENCIA DE VIAGEN                                                            RUADAS FIGUEIRAS                                     501       8º ANDAR            JARDIM                        SANTO ANDRE                                       SP09080370                                                                                  00000158
420210525000000093200141 - MOACIR PEREGO                                                                                                                                                                                                                                                                                                                                                               00000159
520210525000000093200    9.01                0000000003714300000000000000000500UNS                 00000100DIARIA                                                                                                                                                                                                                                                                                      00000160
520210525000000093200    9.01                0000000000185700000000000000000500UNS                 00000100TAXA ISS                                                                                                                                                                                                                                                                                    00000161
22021052500000009320120210525000000NT        2932507000000000513000000000000000000000000000000000000000000000000000000000000000000000000000000000000000000000000000000025650M                    000000000000000                                                                                                                                                                                       00000162
320210525000000093201210760260000119CVC BRASIL OPERADORA E AGENCIA DE VIAGEN                                                            RUADAS FIGUEIRAS                                     501       8º ANDAR            JARDIM                        SANTO ANDRE                                       SP09080370                                                                                  00000163
420210525000000093201133 - JOANA DE SOUZA LUCHIARI                                                                                                                                                                                                                                                                                                                                                     00000164
520210525000000093201    9.01                0000000004885740000000000000000500UNS                 00000100DIARIA                                                                                                                                                                                                                                                                                      00000165
520210525000000093201    9.01                0000000000244260000000000000000500UNS                 00000100TAXA ISS                                                                                                                                                                                                                                                                                    00000166
22021052500000009320220210525000000NT        2932507000000000498939000000000000000000000000000000000000000000000000000000000000000000000000000000000000000000000000000024947M                    000000000000000                                                                                                                                                                                       00000167
320210525000000093202104092905645   LUCIANA MATOSINHOS RIBEIRO                                                                                                                                                                                           NOVA LIMA                                         MG45690000lribei.984883@guest.booking.com                                                   00000168
420210525000000093202                                                                                                                                                                                                                                                                                                                                                                                  00000169
520210525000000093202    9.01                0000000004338600000000000000000500UNS                 00000100DIARIA                                                                                                                                                                                                                                                                                      00000170
520210525000000093202    9.01                0000000000433860000000000000000500UNS                 00000100TAXA DE SERVIÇO                                                                                                                                                                                                                                                                             00000171
520210525000000093202    9.01                0000000000216930000000000000000500UNS                 00000100TAXA ISS                                                                                                                                                                                                                                                                                    00000172
22021052500000009320320210525000000NT        2932507000000000010000000000000000000000000000000000000000000000000000000000000000000000000000000000000000000000000000000000500M                    000000000000000                                                                                                                                                                                       00000173
320210525000000093203116255444805   PATRICIA  MATIAS                                                                                    RUASAO CONSTANCIO                                    05        CASA                VL MAFRA                      SAO PAULO                                         SP03414010patricia@mathiasimoveis.com.br                                                    00000174
420210525000000093203                                                                                                                                                                                                                                                                                                                                                                                  00000175
520210525000000093203    9.01                0000000000100000000000000000000500UNS                 00000100NAUTICA                                                                                                                                                                                                                                                                                     00000176
22021052500000009320420210525000000NT        2932507000000000437076000000000000000000000000000000000000000000000000000000000000000000000000000000000000000000000000000021854M                    000000000000000                                                                                                                                                                                       00000177
320210525000000093204297535686000157VIAJAR BARATO VIAGENS E TURISMO S/A                                                                 RUAMARTINS FONTES                                    81        CONJ 12             CENTRO                        SAO PAULO                                         SP01050000                                                                                  00000178
420210525000000093204252 - VICTOR  PEREIRA                                                                                                                                                                                                                                                                                                                                                             00000179
520210525000000093204    9.01                0000000003542400000000000000000500UNS                 00000100DIARIA                                                                                                                                                                                                                                                                                      00000180
520210525000000093204    9.01                0000000000354240000000000000000500UNS                 00000100TAXA DE SERVIÇO                                                                                                                                                                                                                                                                             00000181
520210525000000093204    9.01                0000000000177120000000000000000500UNS                 00000100TAXA ISS                                                                                                                                                                                                                                                                                    00000182
520210525000000093204    9.01                0000000000148500000000000000000500UNS                 00000100TRANSFER - ILHÉUS - IN                                                                                                                                                                                                                                                                      00000183
520210525000000093204    9.01                0000000000148500000000000000000500UNS                 00000100TRANSFER - ILHÉUS - OUT                                                                                                                                                                                                                                                                     00000184
22021052500000009320520210525000000NT        2932507000000000437076000000000000000000000000000000000000000000000000000000000000000000000000000000000000000000000000000021854M                    000000000000000                                                                                                                                                                                       00000185
320210525000000093205297535686000157VIAJAR BARATO VIAGENS E TURISMO S/A                                                                 RUAMARTINS FONTES                                    81        CONJ 12             CENTRO                        SAO PAULO                                         SP01050000                                                                                  00000186
420210525000000093205250 - PATRICIA  MATIAS                                                                                                                                                                                                                                                                                                                                                            00000187
520210525000000093205    9.01                0000000003542400000000000000000500UNS                 00000100DIARIA                                                                                                                                                                                                                                                                                      00000188
520210525000000093205    9.01                0000000000354240000000000000000500UNS                 00000100TAXA DE SERVIÇO                                                                                                                                                                                                                                                                             00000189
520210525000000093205    9.01                0000000000177120000000000000000500UNS                 00000100TAXA ISS                                                                                                                                                                                                                                                                                    00000190
520210525000000093205    9.01                0000000000148500000000000000000500UNS                 00000100TRANSFER - ILHÉUS - IN                                                                                                                                                                                                                                                                      00000191
520210525000000093205    9.01                0000000000148500000000000000000500UNS                 00000100TRANSFER - ILHÉUS - OUT                                                                                                                                                                                                                                                                     00000192
22021052500000009320620210525000000NT        2932507000000000759668000000000000000000000000000000000000000000000000000000000000000000000000000000000000000000000000000037983M                    000000000000000                                                                                                                                                                                       00000193
320210525000000093206171348239115   BRENO CESAR ABREU SENA                                                                                                                                                                                               SAO PAULO                                         SP45690000                                                                                  00000194
420210525000000093206                                                                                                                                                                                                                                                                                                                                                                                  00000195
520210525000000093206    9.01                0000000006003200000000000000000500UNS                 00000100DIARIA                                                                                                                                                                                                                                                                                      00000196
520210525000000093206    9.01                0000000000600320000000000000000500UNS                 00000100TAXA DE SERVIÇO                                                                                                                                                                                                                                                                             00000197
520210525000000093206    9.01                0000000000300160000000000000000500UNS                 00000100TAXA ISS                                                                                                                                                                                                                                                                                    00000198
520210525000000093206    9.01                0000000000346500000000000000000500UNS                 00000100TRANSFER - ILHÉUS - IN                                                                                                                                                                                                                                                                      00000199
520210525000000093206    9.01                0000000000346500000000000000000500UNS                 00000100TRANSFER - ILHÉUS - OUT                                                                                                                                                                                                                                                                     00000200
22021052500000009320720210525000000NT        2932507000000000328266000000000000000000000000000000000000000000000000000000000000000000000000000000000000000000000000000016413M                    000000000000000                                                                                                                                                                                       00000201
320210525000000093207203563689000231DECOLAR.COM LTDA                                                                                    AV DOUTOR TIMÓTEO PENTEADO                           1578                          VILA HULDA                    SAO PAULO                                         SP07094000                                                                                  00000202
420210525000000093207528 - MARILIA RODRIGUES DUARTE                                                                                                                                                                                                                                                                                                                                                    00000203
520210525000000093207    9.01                0000000002854470000000000000000500UNS                 00000100DIARIA                                                                                                                                                                                                                                                                                      00000204
520210525000000093207    9.01                0000000000285480000000000000000500UNS                 00000100TAXA DE SERVIÇO                                                                                                                                                                                                                                                                             00000205
520210525000000093207    9.01                0000000000142710000000000000000500UNS                 00000100TAXA ISS                                                                                                                                                                                                                                                                                    00000206
22021052500000009320820210525000000NT        2932507000000000039600000000000000000000000000000000000000000000000000000000000000000000000000000000000000000000000000000001980M                    000000000000000                                                                                                                                                                                       00000207
320210525000000093208134241525873   MARILIA RODRIGUES DUARTE                                                                            AV AVENIDA VILA EMA                                  1595      APTO47              VILA EMA                      SAO PAULO                                         SP03281000mariliard@yahoo.com.br                                                            00000208
420210525000000093208                                                                                                                                                                                                                                                                                                                                                                                  00000209
520210525000000093208    9.01                0000000000198000000000000000000500UNS                 00000100TRANSFER - ILHÉUS - IN                                                                                                                                                                                                                                                                      00000210
520210525000000093208    9.01                0000000000198000000000000000000500UNS                 00000100TRANSFER - ILHÉUS - OUT                                                                                                                                                                                                                                                                     00000211
22021052500000009320920210525000000NT        2932507000000000819654000000000000000000000000000000000000000000000000000000000000000000000000000000000000000000000000000040983M                    000000000000000                                                                                                                                                                                       00000212
3202105250000000932099C3FL7PTGR     MAXIMILIAN KOHLER                                                                                      RUA K                                             90                            ST OESTE                      GOIANIA                                           EX74120040REZENDE_NADO@YAHOO.COM.BR                                                         00000213
420210525000000093209                                                                                                                                                                                                                                                                                                                                                                                  00000214
520210525000000093209    9.01                0000000007127400000000000000000500UNS                 00000100DIARIA                                                                                                                                                                                                                                                                                      00000215
520210525000000093209    9.01                0000000000712740000000000000000500UNS                 00000100TAXA DE SERVIÇO                                                                                                                                                                                                                                                                             00000216
520210525000000093209    9.01                0000000000356400000000000000000500UNS                 00000100TAXA ISS                                                                                                                                                                                                                                                                                    00000217
22021052500000009321020210525000000NT        2932507000000000019800000000000000000000000000000000000000000000000000000000000000000000000000000000000000000000000000000000990M                    000000000000000                                                                                                                                                                                       00000218
320210525000000093210113419250134   LUCIA  KATIA  GORDO                                                                                                                                      05        CASA                                              GOIANIA                                           GO45690000lklobo@hotmail.com                                                                00000219
420210525000000093210                                                                                                                                                                                                                                                                                                                                                                                  00000220
520210525000000093210    9.01                0000000000099000000000000000000500UNS                 00000100TRANSFER - ILHÉUS - IN                                                                                                                                                                                                                                                                      00000221
520210525000000093210    9.01                0000000000099000000000000000000500UNS                 00000100TRANSFER - ILHÉUS - OUT                                                                                                                                                                                                                                                                     00000222
22021052500000009321120210525000000NT        2932507000000000473340000000000000000000000000000000000000000000000000000000000000000000000000000000000000000000000000000023667M                    000000000000000                                                                                                                                                                                       00000223
320210525000000093211113419250134   LUCIA  KATIA  GORDO                                                                                                                                      05        CASA                                              GOIANIA                                           GO45690000lklobo@hotmail.com                                                                00000224
420210525000000093211                                                                                                                                                                                                                                                                                                                                                                                  00000225
520210525000000093211    9.01                0000000004116000000000000000000500UNS                 00000100DIARIA                                                                                                                                                                                                                                                                                      00000226
520210525000000093211    9.01                0000000000411600000000000000000500UNS                 00000100TAXA DE SERVIÇO                                                                                                                                                                                                                                                                             00000227
520210525000000093211    9.01                0000000000205800000000000000000500UNS                 00000100TAXA ISS                                                                                                                                                                                                                                                                                    00000228
22021052500000009321220210525000000NT        2932507000000000012000000000000000000000000000000000000000000000000000000000000000000000000000000000000000000000000000000000600M                    000000000000000                                                                                                                                                                                       00000229
320210525000000093212184948809187   FLAVIO PEIXOTO                                                                                      RUALÉLIA                                                       QUADRA AF3 LOTE 7   ALPHAVILLE                    GOIANIA                                           GO74884580fgpeixoto@hotmail.com                                                             00000230
420210525000000093212                                                                                                                                                                                                                                                                                                                                                                                  00000231
520210525000000093212    9.01                0000000000120000000000000000000500UNS                 00000100TAXA S/TRANSFER MARITIMO                                                                                                                                                                                                                                                                    00000232
22021052500000009321320210525000000NT        2932507000000000064500000000000000000000000000000000000000000000000000000000000000000000000000000000000000000000000000000003225M                    000000000000000                                                                                                                                                                                       00000233
320210525000000093213123432020104   RICARDO PALMEIRA                                                                                    AV 15                                                98        QDH6 LOT 08 E APT 16SETOR OESTE                   GOIANIA                                           GO74140035fazitacaru@hotmail.com                                                            00000234
420210525000000093213                                                                                                                                                                                                                                                                                                                                                                                  00000235
520210525000000093213    9.01                0000000000249000000000000000000500UNS                 00000100SPA COMANDATUBA                                                                                                                                                                                                                                                                             00000236
520210525000000093213    9.01                0000000000198000000000000000000500UNS                 00000100TRANSFER - UNA - IN                                                                                                                                                                                                                                                                         00000237
520210525000000093213    9.01                0000000000198000000000000000000500UNS                 00000100TRANSFER - UNA - OUT                                                                                                                                                                                                                                                                        00000238
22021052500000009321420210525000000NT        2932507000000000009000000000000000000000000000000000000000000000000000000000000000000000000000000000000000000000000000000000450M                    000000000000000                                                                                                                                                                                       00000239
320210525000000093214125330888972   ANA PAULA MATOSINHOS                                                                                                                                                                                                 BELO HORIZONTE                                    MG45690000a_matosinhos@hotmail.com                                                          00000240
420210525000000093214                                                                                                                                                                                                                                                                                                                                                                                  00000241
520210525000000093214    9.01                0000000000090000000000000000000500UNS                 00000100TAXA S/TRANSFER MARITIMO                                                                                                                                                                                                                                                                    00000242
22021052500000009321520210525000000NT        2932507000000000034420000000000000000000000000000000000000000000000000000000000000000000000000000000000000000000000000000001721M                    000000000000000                                                                                                                                                                                       00000243
320210525000000093215106976493697   RENATA SILVEIRA                                                                                     AV NIEMEYER                                          550       CASA 7              VIDIGAL                       RIO DE JANEIRO                                    RJ22450220gohuggo@icloud.com                                                                00000244
420210525000000093215                                                                                                                                                                                                                                                                                                                                                                                  00000245
520210525000000093215    9.01                0000000000199200000000000000000500UNS                 00000100SPA COMANDATUBA                                                                                                                                                                                                                                                                             00000246
520210525000000093215    9.01                0000000000025000000000000000000500UNS                 00000100TAXA ROOM SERVICE                                                                                                                                                                                                                                                                           00000247
520210525000000093215    9.01                0000000000120000000000000000000500UNS                 00000100TAXA S/TRANSFER MARITIMO                                                                                                                                                                                                                                                                    00000248
22021052500000009321620210525000000NT        2932507000000000089000000000000000000000000000000000000000000000000000000000000000000000000000000000000000000000000000000004450M                    000000000000000                                                                                                                                                                                       00000249
320210525000000093216160786841834   TSUTOMU NAMIKI                                                                                      RUA                                                                                                              SAO PAULO                                         SP45690000                                                                                  00000250
